:020000042A00D0
:10000000D1DC4B843410D7730D000000FFFFFFFFDD
:10001000FFFFFFFF500000005000002A1CEC000012
:100020001CD300006CD3002A000100006CD4002A0D
:10003000001800000100000001000000FFFFFFFFAA
:10004000FFFFFFFFFFFFFFFFFFFFFFFFFFFFFFFFC0
:100050003A2D00EA98B3002A98B3002A98B3002AF0
:1000600098B3002A98B3002A98B3002A98B3002ABC
:1000700098B3002A12345678100675541006755439
:100080007847C046640051E3202B000A0000B0E32B
:100090001EFF2FE130B48E4A08290FD38D4C05780E
:1000A000130A12026B405B00E35A53401A04120C0D
:1000B00008390904090C401C0829F0D2002917D07E
:1000C00000780302491E08048349000C14005C40B8
:1000D000240403D55204120C4A4001E05204120CCD
:1000E0005B041B0C0400401E0004000C002CEDD12E
:1000F000D04330BC0004000C704710B4744A082987
:100100000DD3764B047854402406E40D1C5B120A90
:10011000624008390904090C401C0829F2D2002960
:1001200014D000780302491E08046D49000C140025
:100130005C40E40702D052084A4000E052085B08E5
:100140000400401E0004000C002CF0D1D04310BC71
:100150000004000C704730B4624A08290ED3624B89
:100160000578940D6C402406A40D1C5912026240BF
:1001700008390904090C401C0829F1D2002914D0BF
:1001800000788305491E08045849000C14005C409F
:10019000A40002D552004A4000E052005B00040077
:1001A000401E0004000C002CF0D1D04330BC800075
:1001B0008008704730B44B4B8343082A0ED34A481B
:1001C0000D789C0D6C402406A40D04591B0263405D
:1001D000083A1204120C491C082AF1D2002A14D041
:1001E00008788105521E1004404A000C1C004C4047
:1001F000A40002D55B00534000E05B00490004000E
:10020000401E0004000C002CF0D1D84330BC80000C
:100210008008704730B4C0430004000C002A0FD09F
:100220002C4C0D78030A00026B405B00E35A4340FC
:100230001804000C521E1204120C491C002AF0D1A2
:10024000C04330BC0004000C704710B4C04300042D
:10025000000C002A0BD0214B0C7844402406E40DFE
:100260001C5B000A6040521E491C002AF4D1C043A6
:1002700010BC0004000C7047030030B410000829C3
:100280000DD31B4A1D78040E6C40A40014590002C3
:10029000604008390904090C5B1C0829F2D20029C6
:1002A00013D01A781206491E124B0904090C0400D7
:1002B000544002D54000584000E0400052000C007D
:1002C000491E0904090C002CF1D130BC7047000014
:1002D000FFFF0000B0C1002A21100000B0C3002AB7
:1002E00008840000FFFFFF3FB0BD002AC7B930609F
:1002F000B0C5002AB71DC1040021016041607047EC
:1003000010B5254C20680BF0D5F901280DD1606897
:100310000BF0D0F9002806D100F0C6F860680BF0A9
:10032000C9F90028F8D01D48046110BC08BC184762
:10033000FFF7E6FF00F0F7F81948184C20606060FE
:10034000A060E0601748FFF7D7FF174861680BF01F
:10035000B2F91648A1680BF0AEF91548E1680BF048
:10036000AAF900F08AFF134C200000F0A4F8FBE784
:10037000002070470020704710B56421484300F00A
:100380009AF810BC08BC1847704700200A49401C66
:100390008842FCDB70470000F8CF002AC4CF002A57
:1003A000F902002A7C13012A8413012A8C13012AE2
:1003B0009413012A10270000E803000010B531480B
:1003C000006802F00DFA10BC08BC184710B501F027
:1003D000D5FD10BC08BC184710B501F01AFE002866
:1003E00007D0284C206802F0FBF901F012FE00282B
:1003F000F8D110BC08BC18470120704710B50400A4
:100400006068022806D1E169606900F04EF92000B9
:1004100001F03FFE10BC08BC184738B5002001F0C1
:1004200002FD012000230090174918481A0001F02E
:100430000AFD144D286000281FD0C068002102F07A
:100440009BFE1349441828680021C06802F094FEFE
:10045000201A002811DD286802F0C2F92868C16955
:10046000002903D038BC08BC01201847C06800210F
:1004700002F082FE201A0028EDDC38BC08BC002007
:1004800018470000D8CF002ADCCF002AFD03002A3D
:1004900020A10700FEE77047114901208863114938
:1004A00008631149086070470D490120C8630D4970
:1004B00000200863704770B5094C0025A560012134
:1004C000E1600BF021FA094A094B0BF025FA0BF019
:1004D000B5F9A1688142FCD3E56070BC08BC18473F
:1004E00000A000020000401A40A000028DEDB5A05F
:1004F000F7C6A03F70B50400200004E0521E0B7840
:10050000491C0370401C002A05D0CB07DB0FC50730
:10051000ED0F2B43F2D1002A01D00AF071FC20002C
:1005200070BC08BC184710B4FF4B00221A609A80B8
:100530000120FE4C411E6143CC18FC4941435C50F4
:10054000C9188A80401C0228F3DBF949F948816107
:10055000C2614262027002620121417010BC7047A8
:1005600010B4F44AF44C506A00238188A14202D9A5
:10057000838010BC7047116A002905D00860506A5A
:100580001062536210BC70471062D061536210BC9D
:100590007047F8B5E94F3868C0680BF08BF83868D9
:1005A00001697E200BF087F801250024E148816A6B
:1005B000002918D9E043C00603D13868C0680BF0A1
:1005C00079F8DF48065D7E2E26D07D2E24D039684E
:1005D00030060969000E0BF06EF86D1C641CD548DE
:1005E000806A8442E6D33868C0680BF063F83868E4
:1005F00001697E200BF05FF86D1CA80609D13868F0
:1006000001697E200BF057F8386801697E200BF0F5
:1006100052F8F8BC08BC1847386801697D200BF017
:100620004AF820203968464030060969000E0BF070
:1006300042F8AD1CD2E710B5BE4CA06AC004010C54
:10064000BF48FFF75AFDBE4AA16A5054000A52182B
:100650005070891CA16210BC08BC184700210278A8
:10066000401C002A04D0491C0278401C002AFAD100
:100670000800704770B503001800FFF7EFFF040093
:10068000AF4D0E20287022001900681CFFF732FFC2
:10069000A849641C601C0A2288622A55FFF7CBFF18
:1006A000FFF777FF70BC08BC184770B50C00A14D70
:1006B000E9680919E960696A002908D1A96900296E
:1006C00013D069620A68AA6100228A800A606B6A94
:1006D0009B1D010022001800FFF70CFF686A848050
:1006E000FFF73EFF70BC08BC184796A0FFF7C2FF9B
:1006F00070BC08BC1847F8B51C258E4F3869FFF749
:10070000ADFF0400974839692200FFF7F3FE22008D
:10071000944E0832944219DA9349FB68402C0BDB63
:100720007869FFF79BFF05008E4879692A00FFF77B
:10073000E1FE0020705509E01800E8400007000FB6
:10074000085C30552D1F641C9442E7DB00203055B7
:100750008448FFF78FFFF8BC08BC184770B5040049
:100760000D002800FFF77AFF06002800FFF782FF40
:1007700073480D2101704470210A8170210CC170F1
:10078000210E017132002900401DFFF7B3FE6948B8
:10079000761D8662FFF74FFFFFF7FBFE70BC08BCBB
:1007A000184710B5052071A1FFF7D8FF10BC08BC91
:1007B00000201847F8B5040070492022E01D0AF017
:1007C000E3FA002807D005206DA1FFF7C7FFF8BCAA
:1007D00008BC0020184726002036307A022807D2AD
:1007E00005206DA1FFF7BAFFF8BC08BC0020184730
:1007F000A088242807D203206EA1FFF7AFFFF8BC22
:1008000008BC002018474B48002545704C4F02217A
:100810003800397071492022401CFFF76BFE704C84
:100820005A206070FE20A070E5703C202071657138
:10083000A571E57125726572A57203F005FA0300D2
:10084000002B1FD01800FFF709FF0206120EE272FC
:1008500064481900FFF74EFEE17A2C310222481C51
:100860007A54441C3D54381903F0F0F90119727A96
:1008700019200240481C7A545B49D2060AD501224D
:100880000A7008E0082059A1FFF768FFF8BC08BC0F
:10089000002018470D70274988620121C90288424B
:1008A00004D9072058A1FFF759FFFEE7FFF7C3FE61
:1008B000FFF76FFE00245E4DE000401940680028FD
:1008C00001D00AF0F7FE641C042CF5DBF8BC08BC70
:1008D0000020184770B5831D8088072807D00320A3
:1008E00054A1FFF73BFF70BC08BC00201847987864
:1008F0005D78197900020543D87800040906084399
:10090000054398795C790002044311212819890272
:10091000884207D928004DA1FFF720FF70BC08BC12
:1009200000201847A6E000009C13012A103C00009C
:10093000AC4F012A0CD0002A073C0000D4CF002A7B
:10094000C0C7012A4552523A2057696E646F77201A
:100950006F76657272756E20646574656374656424
:100960002E2E2E00C0D7012AB0C9002A496E76610A
:100970006C696420436F6D6D616E6400C1C9002AAB
:10098000496E76616C6964206D61676963206E757C
:100990006D62657200000000496E76616C696420CA
:1009A00070726F746F636F6C2076657273696F6EAF
:1009B00000000000506172616D65746572205265BF
:1009C0007175657374205061636B6574204C656E3E
:1009D000677468204572726F72000000E2C9002AD5
:1009E000E0C7012AECC7012A75D2002A556E72654C
:1009F000636F676E697A656420666C6173682064F2
:100A00006576696365000000496E7465726E616C9D
:100A1000206572726F72202D207265706C795F6232
:100A20007566666572206F76657272756E0000007D
:100A30007C13012A496E76616C6964207061636B76
:100A40006574206C656E67746800000052656164AF
:100A500020756E7375636365737366756C202D20E6
:100A60004E6F7420616C6C6F776564206164647292
:100A7000657373000F208002844207D90320F7A119
:100A8000FFF76CFE70BC08BC00201847F848042132
:100A900001705978417099788170D978C17019794D
:100AA0000171401D2200290003F0C0FB002806D080
:100AB000F0A1FFF753FE70BC08BC00201847F248B5
:100AC000641D8462FFF7B7FDFFF763FD70BC08BCCF
:100AD00000201847F0B583B005210291841D80885D
:100AE000262808D0E9490320FFF738FE03B0F0BC00
:100AF00008BC00201847657820002030C17886782F
:100B000009020E430779407900020743FF2119319A
:100B1000601CFFF7F2FADE498E4208D00298DDA190
:100B2000FFF71CFE03B0F0BC08BC0020184787424A
:100B300008D00298E3A1FFF711FE03B0F0BC08BC97
:100B400000201847012D04D0022D07D0032D15D009
:100B500065E00520E5A1FFF701FE60E003F0F7FA8C
:100B6000002807D0E7A1FFF7F9FD03B0F0BC08BCEF
:100B700000201847ECA0FFF77DFD50E0E078A67854
:100B80006179000206432079000409060843064300
:100B9000201DC178A47909020C4301794079090428
:100BA000000601430C43F14833008021E8A2009481
:100BB0000AF056F8ED48FFF75DFD0F25AD02EB4852
:100BC0002B008021EAA20AF04BF8E848FFF752FD1B
:100BD000EF48019029006002A84200D2010001986C
:100BE0000AF07AF9002C17D01E273D001E2C00D2E7
:100BF0002500019A2900300003F0DDFA002807D013
:100C0000E4A1FFF7ABFD03B0F0BC08BC002018471F
:100C10007619641B002CE8D1E3A0FFF72BFD944864
:100C200024210170984A01219162E549401C03F09A
:100C300031FB002807D0E3A1FFF790FD03B0F0BC23
:100C400008BC00201847FFF7F6FCFFF7A2FC03B032
:100C5000F0BC08BC0020184710B585490C2008706E
:100C6000894901208862FFF7E6FCFFF792FCDB4828
:100C7000006880680AF01EFDFFF70EFCFFF70AFC13
:100C800010BC08BC0020184710B50520D4A1FFF700
:100C900065FD10BC08BC00201847F0B5FFB082B05D
:100CA000811D8088401F05042D0C88784C780A79B6
:100CB00000020443C87800041206104304430026CF
:100CC000491D80918099200008436F4F2843C00739
:100CD00077D0B87900283BD1012149020A00684643
:100CE00003F0A4FA002833D10123BB7168460078D1
:100CF00045281BD168464078462817D16846807839
:100D0000492813D16846C07820280FD16846007959
:100D100050280BD168464079412807D16846807930
:100D2000522803D16846C079542801D07B710FE066
:100D300008AA517C107C09020843917CD27C0904EA
:100D400012061143084305210903884200D27B7132
:100D5000112160198902884218D2797900291AD1A3
:100D60004348082101704470210A8170210CC17030
:100D7000210E01710520B862FFF75DFCFFF709FC49
:100D800000207FB002B0F0BC08BC18470121090662
:100D9000884200D201269949884200D90126002EB6
:100DA00010D0334808210170FF2141708170C1705B
:100DB00001710520B862FFF73EFCFFF7EAFB002057
:100DC000DFE70BE0724880992A00FFF793FB2A04C3
:100DD0006F48120C210003F0DCF804E080982A0030
:100DE000210003F0D6F8002804D085A1FFF7B6FC57
:100DF0000020C6E71E48082101704470210A817056
:100E0000210CC170210E01710520B862FFF713FC9F
:100E1000FFF7BFFB0020B4E710B501207DA1FFF76D
:100E20009DFC10BC08BC0020184710B5811D8088AF
:100E3000401E0404240C0E480A2202702200491CA1
:100E4000401CFFF757FB1048641C8462FFF7F3FB5C
:100E5000FFF79FFB10BC08BC002018475061636B74
:100E6000657420746F6F206C61726765000000000C
:100E7000C0C7012A5265616420756E73756363652E
:100E8000737366756C0000000CD0002A340A002AC7
:100E9000ADDE00004750502F496E666F20636F6DC6
:100EA0006D616E64206661696C65642E20496E76A2
:100EB000616C6964204D61676963204E756D626580
:100EC000720000004750502F496E666F20636F6DAF
:100ED0006D616E64206661696C65642E20496E7672
:100EE000616C6964204352430000000046656174F0
:100EF000757265206E6F7420636F6D70696C6564C8
:100F000020696E00536574206163746976652062A0
:100F10006F6F7420706172746974696F6E2066619E
:100F2000696C656400000000536574206163746936
:100F3000766520626F6F7420706172746974696F76
:100F40006E207375636365737366756C6C790000EE
:100F50007A65726F6F757420737461727420256482
:100F60002C206C656E2025640000000000D8012A4A
:100F70007A65726F696E67206F75742025642062D0
:100F80007974657320617420612074696D65000057
:100F9000BC8B012A5A65726F696E67206F75742069
:100FA0006661696C656400005A65726F6564206FE4
:100FB0007574207375636365737366756C6C790003
:100FC00034D0002A506172746974696F6E20696E42
:100FD000666F206661696C6564000000D4CF002AEA
:100FE00053696D706C65207772697465206E6F74DB
:100FF00020616C6C6F7765640000000000FEE70103
:10100000577269746520756E737563636573736673
:10101000756C00004572617365206E6F7420737586
:1010200070706F727465640010B59A491220087070
:10103000994901208862152098A1FFF78FFB10BC09
:1010400008BC0020184770B5C479934D2879002852
:1010500010D0A04207D00F2096A1FFF77FFB70BCF5
:1010600008BC002018479CA0FFF704FB70BC08BC1C
:1010700000201847200002F05FFE002807D007205C
:10108000A0A1FFF76BFB70BC08BC002018472C71B7
:101090008049142008700120A862FFF7CCFAFFF7FE
:1010A00078FA70BC08BC0020184710B57A4CE0787C
:1010B000217908430AD002F068FF00280ED094A1DD
:1010C000FFF74CFB10BC08BC002018470F2094A170
:1010D000FFF744FB10BC08BC002018476D491620E0
:1010E00008700120A062FFF7A6FAFFF752FA10BCC1
:1010F00008BC0020184710B5C07902F019FE00287E
:1011000006D091A1FFF72AFB10BC08BC00201847AD
:101110006149012088605F4B18221A708862FFF7CE
:101120008AFAFFF736FA10BC08BC0020184710B541
:1011300058481A21017001214170574902208862E4
:10114000FFF779FAFFF725FA10BC08BC0020184712
:1011500070B503000833C4798088801E0204120C25
:101160002100180002F04DFE01004B4D49481C22A1
:10117000072600290BD0EC70027004214170FF217A
:101180008170C170017141718171AE6207E0EC70D4
:10119000027000214170801C02F086FDAE62FFF7F4
:1011A0004AFAFFF7F6F970BC08BC00201847F0B502
:1011B00087B000276B480068C0680AF07BFA3648A1
:1011C000C06900284BD0344901208870CD69286857
:1011D000C861002800D1086200212960AE797E2E06
:1011E00036D0232E26DDA81D0290A88803905E48E5
:1011F000049001A805900024002001905B48E100C4
:101200004158002905D002A80AF055FA012800D15A
:101210000127019A002A0AD053491E48FFF76AF9AC
:101220001D4801998162FFF706FAFFF7B2F9641CC5
:10123000042CE1DB002F0BD1701E222805D81649A3
:101240004978002912D0012E10D02800FFF7A9FA02
:101250001148816929608561C0690028B3D10E49B0
:101260000020887007B0F0BC08BC184781004048D7
:10127000415828000AF01FFAEAE73A4CFFF714F940
:101280002068C0680AF016FAFFF70EF9FFF78FFF23
:10129000F4E70000C0C7012A0CD0002A506F776520
:1012A00072206F6666206E6F7420737570706F7237
:1012B00074656400416C7265616479206F70656E5D
:1012C000656420696E20646966666572656E742067
:1012D0006D6F646500000000416C72656164792087
:1012E0006F70656E65642C2069676E6F72696E67DA
:1012F000206F70656E20696E2073616D65206D6F63
:10130000646500004F70656E206661696C656400FD
:10131000436C6F7365206661696C65640000000052
:1013200043616E6E6F7420636C6F736520776865C0
:101330006E206E6F742070726576696F75736C794C
:10134000206F70656E656400536574207365637506
:1013500072697479206D6F6465206661696C65647B
:101360002E000000D4CF002AC0CF012A7C13012A0E
:1013700038D0002A10B5002801D10F2903D310BCA2
:1013800008BC002018474C4801604C48425C4C485F
:10139000415C4C48006803F044F810BC08BC0120D4
:1013A000184770B500280DD1464C0025206829004B
:1013B00002F0BCFF206802F0E5FF3F48016828000A
:1013C000FFF7D8FF70BC08BC184701207047012008
:1013D000704707B582B0002803D0002005B008BCD4
:1013E000184739480168374803290BD000680123A2
:1013F00004AA03A903F04CF90128EFD005B008BCFA
:10140000002018476A46918901910068012304AAC7
:1014100001A903F005F9EFE707B582B0002803D072
:10142000002005B008BC1847274801682548032953
:101430000AD00068012303A903F046F90128F0D07F
:1014400005B008BC002018476B46998901910068D7
:10145000012301A903F000F9F0E770B5140000289A
:1014600001D1012903D970BC08BC002018471648D7
:1014700000290ED004210160124D0168286803F094
:1014800003F82868210003F00FF870BC08BC0120A5
:10149000184703210160EFE710B5002803D010BC06
:1014A00008BC002018470748006803F0F1F910BC99
:1014B00008BC01201847000080D8012A23CA002A4E
:1014C00014CA002A08CA002AD0D0002A70B56424A1
:1014D000FF4DA869C00303D570BC08BC01201847A4
:1014E000012003F05FFD641EF3D270BC08BC002035
:1014F0001847F7480021016001610168F54A9143EE
:101500000122D2038918016001683F2212021143AF
:101510000160F14941608168C90CC904891C81607E
:10152000C168C90CC9040931C160EC494161EC4989
:1015300001610168EB4A11430160EB48026AFF2137
:1015400001310A430262E94802680A430260BDE7CA
:1015500070B5E748816A0024C9070125002905D034
:10156000016A0462816AA943816204E0416A4462BB
:10157000816A294381624B20000203F0FBFCDD48B5
:10158000816AC90706D0016A0462816A4908490074
:10159000816204E0416A4462816A29438162D648DB
:1015A000816AC90708D0016AC909C9010162816A53
:1015B00049084900816206E0416AC909C9014162DE
:1015C000816A29438162CD48C16889088900491C24
:1015D000C1608168C90706D0016804608168490854
:1015E0004900816004E0416844608168294381606A
:1015F000C348816AC9070AD0016AC909C9010162E1
:10160000816A49084900816270BC08BC1847416A78
:10161000C909C9014162816A2943816270BC08BC61
:10162000184770B5B248816A2B25C90701240029E3
:1016300005D0016A0562816AA143816204E0416AC2
:101640004562816A214381627D20400203F092FC61
:10165000A848816AC90706D0016A0562816A4908FB
:101660004900816204E0416A4562816A21438162E6
:10167000A148816AC90709D0016AC909C9011331A2
:101680000162816A49084900816207E0416AC9092B
:10169000C90113314162816A21438162974881689F
:1016A000CA071321002A06D0026801608168490830
:1016B0004900816004E042684160816821438160A3
:1016C0008F48816AC9070BD0016AC909C9012B314A
:1016D0000162816A49084900816270BC08BC1847F0
:1016E000416AC909C9012B314162816A2143816282
:1016F00070BC08BC18478348834A106050609060F3
:10170000D060106150619061D06180498861106241
:101710005062086048608860C86008614861C861BC
:101720000862486288627A4842687A490A40521DD3
:10173000426082680A40121D8260C2680A40121D1F
:10174000C26002690A40121D026142690A40521DCC
:10175000426182690A40121D8261C2690A40D21D3B
:10176000C261026A0A40121D0262426A0A40121DE8
:101770004262826A0A40921D8262C26A0A40521D17
:10178000C26270475F486449086048608860C8600A
:101790006249086048608860C860614842685D4985
:1017A0000A40921D426082680A40921D8260C268AF
:1017B0000A40D21DC26002690A40D21D0261594826
:1017C000016AC90AC90234310162704756480F21C3
:1017D00001605649564A116051609160554A116046
:1017E00051609160D16042684A490A40121D4260CE
:1017F00082680A40121D8260C2680A40121DC260DF
:1018000002690A40121D0261704710B54A48016A18
:10181000494A40200143116248490968474A014347
:10182000116047490968464A014311604449896883
:10183000014391604249C9680143D1604049096947
:10184000014311613F49096A3E4A014311623D4922
:10185000496A014351623C4909683B4A01431160AE
:101860003A49096A394A0143116239490968384AD3
:1018700001431160374A116A01431162516A014301
:10188000516235490B6803430B604B6803434B605F
:10189000324B1B68314C03432360304B9B6803433E
:1018A000A3602E4BDB680343E3602C4B1B690343AF
:1018B00023612A4B1B6A03432362284B5B6A034361
:1018C0006362264B9B6A0343A362244BDB6A47E0B7
:1018D0004031900000C00F000E1003000000C00057
:1018E000001000000000100080349000C034900010
:1018F0004027900080249000C02D9000402690004A
:10190000C022900000820000003630010038300113
:1019100080383001F0FF00000036400100384001FF
:10192000803840014000F00080385001F481000010
:10193000003650010038500100249000C020900073
:101940000021900080209000002E9000C023900085
:1019500000259000C021900040259000402190007B
:101960000343E362C94B1B6B03432363C74B5B6BAE
:1019700003436363C54B9B6B0343A363C44B1C6866
:1019800004431C60C34B1C6804431C605C68044334
:101990005C60C14B1C6A04431C621C6804431C60ED
:1019A000BE4B1C6804431C601C6A04431C62BC4B95
:1019B0001C6804431C60BB4BDC6A0443DC62BA4B0A
:1019C0001C6804431C60946A04439462B74A146A16
:1019D00004431462B64A146904431461546904430D
:1019E00054619469044394610A6A02430A624A6A30
:1019F00002434A62AF490A6802430A60AE4AD46AA7
:101A000050210C43D4621A6A0A431A62AB490A6A2B
:101A100002430A62FFF76FFEFFF7B4FEFFF7D6FE40
:101A2000A749F020886110BC08BC1847F8B54B20C6
:101A3000000203F09FFAA34940208861A24803F006
:101A4000B1FAA248016A012529430162016A02260E
:101A5000B14301629E489F4F38619F4803F08AFA64
:101A60009E4801681024214301600168042211434B
:101A700001609B480068C00704D0FFF769FD9849E2
:101A800000200860FFF735FD00287ED0386820432D
:101A90003860786820437860FFF7C3FD9149086893
:101AA0002043086090480268224302608268224313
:101AB0008260C2682243C2600269224302618B4A8B
:101AC00012688A4B22431A60026A224302626F48FC
:101AD000026822430260826822438260C268224315
:101AE000C260026922430261026A22430262426AC0
:101AF00022434262826A22438262C26A2243C262F3
:101B0000026B22430263426B22434263826B224395
:101B100082637748006A764A204310627548006AFB
:101B2000744A204310625A480068594A20431060A2
:101B30005B4800685A4A2043106057480068564A7C
:101B40002043106055480068544A204310605248B2
:101B5000006A514A204310625048006A4F4A2043AD
:101B600010625348046144618461634A50201060EC
:101B70005060614884604B48C4624B4A10682043FF
:101B800010604A480462446200E074E05B48806A86
:101B90005A4B304398625A4800685A4B1843584B86
:101BA00018608C62CC62584804605848006A402132
:101BB0000843564908625648564908625648016A21
:101BC00021430162416A214341625448416B2943E8
:101BD000416353484168294341604C48006A0121F0
:101BE00009030843494908624848006A4D490843C7
:101BF000464908624C494D4881604D4941614D4B11
:101C00000021D9624C4981614C4901624C49016310
:101C10004C484D4908604D484D4948604D49512058
:101C2000C8604D48016A21430162416A2143416213
:101C30004A48016A214301621E480168214301604C
:101C40004748016A21430162416A21434162816A36
:101C5000214381621848C16A2143C162106A20434E
:101C6000106240480078002801D0FFF7CEFDF8BC94
:101C700008BC01201847F8BC08BC00201847D5E66E
:101C800010B5FFF765FC10BC08BC18474021900058
:101C9000002C90004020900080269000C0269000EC
:101CA000802290004027900080279000802B900099
:101CB000402690000029900080249000802590000C
:101CC000C00330180000200088130000802E900010
:101CD00011080000C027900078690000C02E900015
:101CE000403190008020900000219000C0209000A2
:101CF000C02390000024900040299000C022900052
:101D00004030900000100000002E9000C02F900086
:101D100010010000802D9000002790008000002816
:101D2000C0000028000800004B8000910000000463
:101D300000800000800100040100EC170004203541
:101D4000C70300000500FF8080000004FF140000AE
:101D5000400200048021900040259000C02A90009D
:101D6000C0219000DCD0002A70B50500CB48416846
:101D700001290CD0816B012909D0002134224A436A
:101D80001418E269002A05D0491C0229F6DB70BC50
:101D900008BC1847200000F0A0FA0028F7D0203532
:101DA000BF4800F01DFD687A0028F0D0200000F048
:101DB00094FA0028F4D170BC08BC184710B501296A
:101DC0000FD003290AD1B74C2178012901D1FFF79F
:101DD000CBFFE068002801D009F06CFC10BC08BC07
:101DE00018470021C0690C2803D0FF38E13803D11F
:101DF00001E0402100E0AC49AC4A0B0A5068017197
:101E0000437190690171090A417110BC08BC1847FF
:101E100000218161A3494968002900D00847704723
:101E2000A049896808479E49C860704710B50400FA
:101E3000A068FFF799FF9B492000896809F03BFCE7
:101E400010BC08BC1847FFB583B00C9D14001E00E1
:101E5000002794480570924A002901D09068C1611A
:101E600093499248416093498161934893494860FE
:101E7000934B94484360944B894A1360C16001209E
:101E800001F028FA864800F083FC864803998160B7
:101E9000002C00D04460002E00D0C660804E01AA05
:101EA000F06802A900F08CFE884886607F494A6885
:101EB00092780274864A42610023836101222024C1
:101EC0002254844A4262002D3CD0002082493424AE
:101ED00002006243714C1419A660744A92699278A8
:101EE00022740203521862617C4AA26120221355B7
:101EF0007B4A6262E361401C0006000E0228E6D3C2
:101F0000002F2FD0664800F084FB76480121017233
:101F1000F068002201F08FF80122F068110001F052
:101F20008AF8F0680022022101F085F8F0680122A9
:101F3000022101F080F85A48012100F045F9012DF5
:101F40000DD00FE0684CA6608869807820746361CA
:101F5000A3612020035565486062E361D0E7A06873
:101F6000FFF702FF07B0F0BC08BC4D48184710B59A
:101F70004B4800F03EFC10BC08BC184770B505008B
:101F8000524C6068012805D1454800F029FC606882
:101F90000128F9D0A069411CA16161690D547E2D11
:101FA00002D1A069012804D8A069012189038842CF
:101FB00002D3200000F091F970BC08BC184770B53E
:101FC00005000E00414C6068012805D1344800F03E
:101FD00007FC60680128F9D0002D07D1002E05D03C
:101FE00060693200290008F00BFF00E06561A6611E
:101FF000200000F072F96068012805D1284800F03F
:10200000EFFB60680128F9D03148606170BC08BC02
:1020100018472E484068012805D02148806B0128C8
:1020200001D00020704701207047F8B506000F006E
:102030002D4C25006868012805D1194800F0D0FB17
:1020400068680128F9D0002E03D1002F01D0666105
:1020500000E06661A761200000F03FF9F8BC08BC11
:10206000002018470021C1617047174A002800D09E
:102070001081002900D051817047002A08D1124AEE
:10208000002801D013890380002901D050890880DD
:1020900070470021C161806866E60000F418022ADA
:1020A00074D1002AE0D0002A0002000024D1002AC6
:1020B00014D1002A1BD1002A0BD1002A4CD1002AAE
:1020C00002D1002A64D1002AF0D0002A8C18022AFA
:1020D0008CD8012A111E002A5C19022A0010000067
:1020E0002D1E002A94D1002AC018022A211E002A7F
:1020F000406803E00068491E0904090C002801D06B
:102100000029F7D170474068002806D0426852790C
:102110008A4202D000680028F8D17047C06AC068BF
:102120007047C06AC068C068002806D042689278CC
:102130008A4203D000680028F8D1002070478068E8
:10214000002808D003898B4202D1837A934203D0BE
:1021500000680028F6D1002070470269002A00D0EC
:102160001047704701620421F7E7F0B5060083B01D
:10217000F06843689C788C4220D1D97891421DD177
:10218000C468002C15D0002561688878C2094B7995
:102190000F791B023B436F4628C7C9788B0701079D
:1021A000B0689B0FC068090F00F02EFD2468002C5A
:1021B000EAD103B0F0BC08BC0020184703B0F0BC63
:1021C00008BC0020C0431847F8B504000E000025E5
:1021D000200020300090407A002807D0002E05D043
:1021E000B04203D0681EF8BC08BC1847B0425FD0AC
:1021F000002E25D031002000FFF785FF0700002FBB
:102200000DD0F8680022406881783800FFF7ADFFF4
:10221000002809DAF8BC08BC0020C0431847F8BC05
:1022200008BC0020C043184700984672E7620020AF
:1022300060627868007A41002000FFF793FF21E098
:10224000009900204872E06200212000FFF78AFF19
:102250000126E0680022310000F09CFEE0680022C8
:10226000310000F042FDE0680122310000F092FEF2
:10227000E0680122310000F038FD761C3606360E8B
:10228000032EE6D303212000FFF767FFE06800F08C
:102290008FFF002805D0012805D0022804D1FF4D6A
:1022A00002E0402500E00825280000F08AFF10E049
:1022B000E06800F07DFF002805D0012805D0022845
:1022C00004D1F64D02E0402500E00825280000F08A
:1022D00078FFF8BC08BC0020184710B5F049016031
:1022E00000214160C1618168002908D0CA68C260CC
:1022F0002031497A002908D1017C090705D0032142
:10230000416010BC08BC081F184700F0FAFD10BC63
:1023100008BC184770B506001D00E24C3000343090
:10232000002900D134304168012904D0426185611F
:10233000FFF7D3FF0400201E00DB280070BC08BCA0
:10234000184702000B0030320121E3E7F8B507001F
:102350000E00B01C0025D34C4178012904D002297D
:1023600005D003291BD10EE03D682C7817E00178D9
:102370003800FFF7BDFE002811D04568E878A9783D
:1023800004020C430BE0027870793379010219439F
:102390003800FFF7D4FE002801D045682C78002DC6
:1023A0000FD0F079B17900020843A04200DA0400AE
:1023B00023002A0001213800FFF7ACFFF8BC08BC5D
:1023C00018472000F8BC08BC184710B54A780A2AFC
:1023D0004AD213007B441B79DB189F44044D454DC2
:1023E0004512264D2B3ACA798B79110219430229DD
:1023F00042D3002101860221FFF7A3FF10BC08BCD5
:102400001847CA78897813020B43010020310A006B
:10241000497A002930D11906090E1172C06800F0FE
:102420008EFB10BC08BC00201847FFF78FFF10BCC4
:1024300008BC1847CA798B79110219431CD00100D6
:1024400020314A7A0A740121FFF77BFF10BC08BCD7
:102450001847CA788B78110219430906090EFFF74D
:10246000B3FE10BC08BC18474269002A04D009F02A
:1024700023F910BC08BC184710BC08BC0020C0439E
:10248000184770B505000C006079227901021143EC
:102490002800FFF743FE617803294AD004DC0029B5
:1024A00011D0012904D144E00A291DD00B292CD0D8
:1024B00000283ED00269002A3BD0210009F0FCF838
:1024C00070BC08BC1847002833D0E079A17900021D
:1024D000084302282DD30020288602212800FFF778
:1024E00030FF70BC08BC1847002822D0E179A279DF
:1024F000090211431DD0017D3020415501212800E2
:10250000FFF71FFF70BC08BC1847E86A002810D00E
:10251000E178A2782379090211430A066179120E43
:10252000090219430906090EFFF71FFE70BC08BC1B
:10253000184770BC08BC0020C043184710B54B6852
:102540009B781C07240FDB090A61002A05D0C068AC
:102550001A00210000F000FB04E0C0681A0021000E
:1025600000F012FB10BC08BC0020184770B5050035
:102570000C0060792279010211432800FFF7D1FD98
:102580000023DB43002811D06178002912D00129F3
:1025900021D003292CD00C292FD0C268002A2CD09E
:1025A000210009F089F870BC08BC184770BC1800FD
:1025B00008BC1847E179A2790902114302291CD30A
:1025C0000069C007C00F288602212800FFF7B9FE66
:1025D00070BC08BC1847E178A278090211430CD1FD
:1025E000010000222800FFF7A9FF70BC08BC1847B3
:1025F000E178A2780902114303D070BC180008BC2E
:102600001847010001222800FFF798FF70BC08BCA2
:10261000184770B50400E06802F0D0FC0600A0691D
:102620000025B04222D0E561002E16D065626421FB
:102630002000FFF797FDE06802F0D0FC002804D0EE
:1026400019492000FFF78EFD0BE000212000FFF765
:1026500089FDE06802F0C7FC03E000212000FFF7DD
:1026600081FDA66100212000FFF777FDE06800F002
:102670009FFD002824D0012824D0022824D0002047
:10268000E169814205D06562E06101212000FFF728
:1026900064FDE06800F098FD050007E0000200001E
:1026A00051555242FFFFFFFFDC050000606AA8425F
:1026B0001FD0002D0AD000212000FFF753FD13E0AA
:1026C0000C20DDE70120DBE75F48D9E7E06A00285E
:1026D00006D04068007A41002000FFF743FD03E088
:1026E00000212000FFF73EFD656205212000FFF775
:1026F00034FD70BC08BC184710B504002000FFF77B
:1027000088FF00212000FFF75FFD002128200155F0
:10271000E06800F014FA0320E066A06310BC08BC77
:10272000184710B50400494B0878C006C00E04D005
:10273000012807D002280ED109E02000FFF745FE4E
:10274000030008E02000FFF79CFE030003E02000E8
:10275000FFF70CFF0300002B09DD220004233032B9
:1027600000212000FFF7D6FD10BC08BC1847002B45
:1027700007D00022E068110000F0EEF910BC08BCA0
:10278000184700212000FFF7DCFD10BC08BC1847EB
:1027900070B504000025A561E561200020300572B8
:1027A000E562457200212000FFF7DCFCE463802134
:1027B00044200155A5650320A063246778210D55A9
:1027C0008C210D51E066224AE068210000F084F877
:1027D000E0680122002100F08FFC70BC08BC1847A3
:1027E00010B5002802D0C06800F07FF910BC08BC0A
:1027F000184770B505000024164E03E02800FFF7C7
:10280000EFFF641CA86B012802D130688442F5D325
:1028100000212800FFF7D8FCE86800F045FC002004
:10282000A861E8612035287270BC08BC184710B553
:1028300004002000FFF7D4FF2034607A002800D085
:10284000012010BC08BC1847E0010000FFFFFFFF9B
:1028500044D2002A40D2002AFB4840787047F8B59D
:10286000FF21FA48813108F059FBC321F84889015A
:1028700008F054FB002501220021F44BE801C718A1
:10288000A801F34B28188001C618880108184001D8
:102890003318880138188360002044011A51401C05
:1028A0004028FADB491C0229EFDB6D1C032DE3DB1A
:1028B000E849E648016001640168E74A11430160A4
:1028C000FF21813102F0D9FBC321E148890102F0E7
:1028D000D4FBF8BC08BC1847F8B506000027DA4856
:1028E00082600C207043DD4A80188160300002F065
:1028F00086FB032002F01EFE300002F08DFBD84D57
:10290000B4002859FF308130816A89088900891C08
:1029100081623000FFF7A3FF2859CC49FF304130D6
:10292000816128590021FF30413081602859FF30F2
:102930008130836A0822134383622859FF30813033
:10294000C162285980308261FFF786FF012806D1D5
:102950002859FF30413001680122114301603800DD
:10296000F8BC08BC1847F8B50700BD4DBC00285995
:102970000121FF308130C1622959FF318131C86A9C
:10298000C007C00F0028FAD1B64801267603009090
:102990002859FF3041300168314301600098082117
:1029A00002F065FBA949A848283106C9143006C0C1
:1029B0002859FF304130006830400028E8D02859BD
:1029C000FF3041300168B14301600C204743A34808
:1029D000381880689C4989684A68A34908F06CFEE9
:1029E000F8BC08BC1847F0B585B081009C48405839
:1029F000FF308130C16B00910099C16300200190CC
:102A0000002601989149C001401804900198810165
:102A100040188F498001401803900198310109182E
:102A200001208840009901422FD00498B10140183C
:102A3000402102F01CFBB1010398711849014418B0
:102A40000294002500272021200002F010FB60687E
:102A5000000CC719002D02D1606805062D0E2068F4
:102A6000012801D0246800E00024002CEBD102985A
:102A7000C469A069C11BE161606902F0F8FA002D28
:102A800014D0802D1BD003206060761C3606360ED5
:102A9000012EC2D90198401C0006000E0190019839
:102AA0000328ADD305B0F0BC08BC18470220606015
:102AB000616A0029E9D0200008F0FDFDE5E701206A
:102AC0006060E2E70C2148436449401880685E4931
:102AD000896889680847F5E70C2148435F49401831
:102AE0008068594989680968084770B505005C48DD
:102AF000A90041580800FF3141314C680A00FF30FD
:102B00008130C66A5460600602D52800FFF7E4FFF2
:102B1000E00502D52800FFF7DEFF600702D5280098
:102B2000FFF7D0FFE00702D02800FFF75CFFF007B7
:102B300002D02800FFF717FF70BC08BC184701231C
:102B40004A061B06D218464B80001858FF30413009
:102B500042613D480170704710B403000020002915
:102B600003D0002A03D0414A02E0414A00E001229A
:102B70009C003B4B89001B59FF31C1315C58944389
:102B800014435C5010BC704730B404000020002394
:102B9000002904D0002A04D0364A2E4B03E0344AE0
:102BA00001E041224023A5002D4C89006459FF31EA
:102BB000C1316558134095431D43655030BC704783
:102BC00010B40023204CA478002C01D02A4805E042
:102BD00083002348C0588030036880680B60106011
:102BE00010BC704700B582B00021019100916A4687
:102BF00001A9FFF7E5FF204A00990120914200D08A
:102C0000002002B008BC1847F8B505000C001600FB
:102C10001F0000200090002C09D0032C03D2022EAC
:102C200001D2022D07D3F8BC08BC03201847F8BC1A
:102C300008BC00201847012E20D02800FFF7D2FF43
:102C400000282BD000202AE050D2002A0040022A7F
:102C50008041022A00004000008000001C77022A08
:102C600038D3002A2840022A64D2002A000001003A
:102C70000100010000004100EFCDAB002800FFF78C
:102C8000B1FF002801D0002001E001208005B90437
:102C900040180121C9054118F94804E04020B90055
:102CA00041188031F748069AE3011704F64A9B1849
:102CB000B2019F50079E01277F07012E11D09E5819
:102CC0003E439E50F14AAB00D358A200FF32C132BE
:102CD0009C58014084430C439C500098F8BC08BCAD
:102CE00018479E58BE439E50ECE770B40024032959
:102CF00003D2022A01D2022801D3032413E0E24EB8
:102D0000CD010023AD199601AB5100290BD0012A4A
:102D10000CD080228300DD48C3588800FF30C130CA
:102D2000195891431950200070BC7047D84AF1E7F8
:102D3000D848C0687047F0B583B08C460193D64D33
:102D40008401D74900198001401861468C01091996
:102D5000D24F4901461802906D1C01208003834226
:102D600000D218006901741800212160A160E1609F
:102D700021616161A161E161010480316160002D27
:102D800003DD691E490171180C60A260A168090B7E
:102D90000903E160E168C919E160E168C9192161CD
:102DA0002169C91961616169C919A1611B1A1218E8
:102DB000002B01D03F2DCFDB089800282CD0604697
:102DC000012829D1FFF7B4FF0100019808F0B4FAF7
:102DD000002921D1019800281ED0681C1CD06D1C30
:102DE000029941204001091868010C180020206058
:102DF000A060E06020616061A061E06180206060AF
:102E0000002D03DD6D1E680108180460A548A06050
:102E1000E06020616061A0610120206060680121A4
:102E2000C9030843606003B0F0BC08BC1847FFB595
:102E3000050083B00D980C00160006998C46924A46
:102E4000E1018918B2018F1831010A19012191405D
:102E500002918E4BAD00002C0CD15959FF318131BC
:102E6000C96AC907C90F002904D007B0F0BC08BC63
:102E7000052018470C9901221205914204D907B088
:102E8000F0BC08BC0320184780494959FF31813103
:102E9000896B029A1140002904D007B0F0BC08BC2D
:102EA0000720184700900C9B310020006246FFF776
:102EB00042FFA0012018810179480818B10171185A
:102EC00049014618BE600020F8600C99069802F08F
:102ED000D4F8002460013018202102F0CEF8641CE0
:102EE000412CF7D34021380002F0C7F86749029817
:102EF0004959FF318131086307B0F0BC08BC00209C
:102F00001847F0B583B00400E768207C05072D0F53
:102F1000C60960698446A2692020035D032D04D39D
:102F200003B0F0BC08BC032018475849B800095842
:102F3000A800FF30C13009580120C005012E00D083
:102F4000802001420FD068460CC0320029003800B2
:102F50006346FFF76CFF00280AD00321616003B0CD
:102F6000F0BC08BC184703B0F0BC08BC07201847E9
:102F7000012161600021E161A901494A69188901C3
:102F80008918B201B21852018918CC6103B0F0BCA3
:102F900008BC1847F7B50F0082B004990124090155
:102FA000C9198C40860039488059FF308130806BC8
:102FB000204001900198002838D03349F801411889
:102FC000049880010818402102F051F80025B8014A
:102FD0003349381880014118049882018018400153
:102FE0000F1868013818202102F041F86D1C412D9E
:102FF000F7D3F869019900290FD0244B9959FF3173
:1030000081314C639959FF3181314A6B2240002A4A
:10301000FBD1896B21400029F0D1002806D0032183
:103020004160416A002901D008F045FB05B0F0BCC1
:1030300008BC0020184710B4120152180121914019
:10304000124C8300E058FF308130806B084000282C
:103050000ED0E058FF3081304163E058FF308130BE
:10306000426B0A40002AFBD1806B08400028F0D157
:10307000E058FF308130C16BC16310BC0020704745
:103080000000FFFFFFFF00000040022A38D3002AA3
:103090000000800050D2002AFFFFFFFF0010000058
:1030A0008041022A60D2002A70B505000026002463
:1030B000220031002800FFF76DFF641C2406240E57
:1030C000022CF5D3761C3606360E032EEFD30026DF
:1030D0000024220031002800FFF707FE641C2406AC
:1030E000240E022CF5D3761C3606360E032EEFD3B3
:1030F00070BC08BC00201847F0B40025022901D29A
:10310000022802D3F0BC03207047814C635C002B83
:1031100002D0F0BC062070477E4B002A00D07E4BC8
:103120007E4E7F4A800000290AD017588037BE6043
:1031300010588030C360012060542800F0BC7047F4
:10314000175880373E60105880304360F3E70229FB
:1031500001D2022801D3032070478200704B002067
:10316000002905D09A588032D060694A505470477F
:103170009A5880325060F8E70022022901D20228D2
:1031800001D303207047664B8000002902D001293B
:1031900006D00AE01858803040680202120A04E0A3
:1031A00018588030C0680202120A5C48801A7047C2
:1031B0005B4980000858FF30813040680001800F73
:1031C00070475849C8607047554980000858FF301B
:1031D0008130406880210840002800D0012000068E
:1031E000000E70474E4980000858FF30813040681B
:1031F0000005800F7047810049484058FF3041303A
:1032000001680122114301607047F8B500250024D0
:10321000454E0904891987004148C259FF3241329D
:10322000116309E03E49C959FF3141310D6B2E0050
:103230000640012002F07EF901208007864205D178
:103240002100FF22641CF5329142EBD32804F8BC24
:1032500008BC000E1847FFB517001E0081B00024FF
:10326000314DFF2E09D001A803C8FFF7CEFF00069D
:10327000000EB0433E40064300E03E0002980321AA
:10328000000480194907401801998E0024498A5981
:10329000FF32413210632F0008E021488059FF308F
:1032A0004130056B3D40012002F044F9BD4205D19B
:1032B0002000FF21641CF5318842EED305B0F0BC3C
:1032C00008BC184710B501F0DFFF10BC08BC0006B1
:1032D000000E184713494870704770B506000C007F
:1032E000150000213000FFF732FF01213000FFF709
:1032F0002EFF0B4AB000115880310C6010588030FE
:10330000856070BC08BC184706498870704700008B
:1033100053D2002A000000C0000000C1FFFFFF00E0
:1033200038D3002A50D2002A0000004010B50024F3
:1033300002210020FEF71EF8002800D10124002001
:10334000FEF72FF8200010BC08BC184710B5012468
:10335000002802D00024FDF718F8200010BC08BC9B
:10336000184730B583B005001A2400200290019060
:103370000221280002AAFEF74FF8012833D169463E
:10338000087A000900010190F0282CD1E8212800DA
:1033900001AAFEF741F8012825D1684600790128E5
:1033A00010D0022810D0032810D0062810D00828EA
:1033B00010D0092810D00A2810D00B2810D00C28C3
:1033C00010D010E00E240EE010240CE00F240AE0D0
:1033D000122408E0132406E0172404E0182402E075
:1033E000162400E01924200003B030BC08BC1847A4
:1033F00030B583B0040000250020029001900A221D
:103400000121FEF72AF8002800D101250221002021
:1034100002AAFEF701F8002800D16D1C6846007A68
:103420000007000F092802D90920207000E0207051
:10343000E821002001AAFDF7EFFF002800D16D1C54
:103440006846007906210A2802D00C2813D10EE024
:103450002078012805D0022806D003280BD321703C
:1034600009E00320207006E00520207003E02078AA
:10347000002800D02170280003B030BC08BC1847D9
:1034800038B50400002500200090E8216A46FDF7C9
:10349000C3FF002800D10125684600780A2809D01A
:1034A0000C280AD003202070002D09D038BC08BC9D
:1034B0000120184702202070F6E701202070F3E772
:1034C00038BC08BC00201847FD4908700020704730
:1034D000FB49002008707047F8B505000024002063
:1034E0000090F74E3078322804D02870F8BC08BC21
:1034F00000201847022100206A46FDF78DFF0028B2
:1035000000D12124FFF7E4FF002800D021243078E7
:1035100028702000F8BC08BC184738B500240020EB
:103520000090FF25E63570222900FDF752FF0028A4
:1035300000D10124290000206A46FDF76DFF002814
:1035400000D1641C6846007880070FD552224F21B5
:103550000020FDF73EFF002800D1641C0021552209
:103560000800FDF736FF002800D1641C002C03D0B2
:1035700038BC08BC0120184738BC08BC00201847DC
:1035800038B5002400200090002201211000FDF732
:1035900083FFE82100206A46FDF73EFF6946087870
:1035A0000A280AD00C280AD0C64D852229000020FE
:1035B000FDF70FFF002804D004E0C34DF5E7C34D2D
:1035C000F3E70124B02229000020FDF702FF0028C4
:1035D00000D1641CC02229000020FDF7FAFE00285B
:1035E00000D1641C902229000020FDF7F2FE002883
:1035F00000D1641C002C0AD15A224F210020FDF773
:10360000E8FE002800D10124B148B249C860012277
:1036100011000020FDF740FF002C03D038BC08BC8F
:103620000120184738BC08BC0020184708B5002006
:10363000009001216A46FDF7EFFE00280ED0684693
:103640000078C00706D0A449A4220020FDF7C1FEDF
:10365000002807D001B008BC0020184701B008BC02
:103660000120184701B008BC01201847F0B589B007
:103670000920089032200790002506950195FFF754
:1036800055FE040000210A220800FDF7E6FE00199D
:103690000406240E0321002005AAFDF7BDFE69469D
:1036A000087D5A2804D152224F210020FDF791FEB7
:1036B0000A2201210020FDF7D0FE041908A8FFF717
:1036C00097FE0419FFF729FF041900210A220800B8
:1036D000FDF7C3FE00190406240E0321002005AAED
:1036E000FDF79AFE6846007D5A2804D152224F21E8
:1036F0000020FDF76EFE0A2201210020FDF7ADFE3D
:103700000419FFF73DFF00190406240E73484169B0
:103710003B220901090C520191420FD34069D11C8F
:103720000001000C884209D8FF21002272310120DB
:1037300001F020FF00190406240E07E001210022F9
:10374000080001F017FF00190406240E07A8FFF770
:10375000C3FE041906A8FFF793FE04196846007E0D
:1037600001F07AFF0419FFF761FF0419FFF75EFF0C
:10377000001907063F0E1821002001AAFDF74CFE94
:10378000002807D069460879C009C00101900028C7
:1037900005D08DE009B0F0BC08BC012018474F21CE
:1037A000002004AAFDF738FE00281DD06846027CE0
:1037B0000620024304924F210020FDF70AFE002854
:1037C00017D04749002003AAFDF726FE002815D090
:1037D0006846007B81064C0F4607760F0020FFF7F6
:1037E000C0FD19280FD025E009B0F0BC08BC0120AD
:1037F000184709B0F0BC08BC0120184709B0F0BC5C
:1038000008BC0120184700956846007B4006C50F9C
:10381000344900206A46FDF7FFFD002864D0684661
:103820000078420852002A432E490020FDF7D1FDBE
:1038300000285ED04F21002004AAFDF7EDFD0028EE
:103840005CD06846027CFB20024004924F2100209D
:10385000FDF7BFFD002856D0FF250B3529000020BD
:1038600002AAFDF7D9FD002852D06846007A7101FE
:10387000C006C00E08430206120E29000020FDF704
:10388000A8FD002849D09C21002002AAFDF7C4FD14
:10389000002847D06846007A6101C006C00E084380
:1038A0000206120E9C210020FDF793FD00283ED059
:1038B000002F41D009B0F0BC08BC0120184713E02C
:1038C0004072022A530100007601000062010000EC
:1038D0000908000000289000090200004020800034
:1038E00055030000B502000009B0F0BC08BC01207F
:1038F000184709B0F0BC08BC0120184709B0F0BC5B
:1039000008BC0120184709B0F0BC08BC01201847CA
:1039100009B0F0BC08BC0120184709B0F0BC08BCD5
:103920000120184709B0F0BC08BC0120184709B0B5
:10393000F0BC08BC0120184709B0F0BC08BC00204E
:10394000184738B5002500950024652100206A46F7
:10395000FDF762FD00282CD0684602781020024353
:1039600065210020FDF735FD002826D00095642153
:1039700000206A46FDF750FD002822D068460078F6
:103980004206520E803264210020FDF722FD0028FD
:103990001BD000954025652100206A46FDF73CFDBF
:1039A000002816D0684600782840800915D00124E8
:1039B00016E038BC08BC0120184738BC08BC012000
:1039C000184738BC08BC0120184738BC08BC012087
:1039D000184738BC08BC012018476420FCF7D5FC08
:1039E000002CD8D038BC08BC0020184738B50025BA
:1039F00000950024642100206A46FDF70DFD002893
:103A000020D0684600784206520E64210020FDF75F
:103A1000E0FC00281AD000954025652100206A4668
:103A2000FDF7FAFC002815D0684600782840800988
:103A300014D06420FCF7A9FC002CEED038BC08BCE4
:103A40000020184738BC08BC0120184738BC08BC07
:103A50000120184738BC08BC012018470124EBE7B7
:103A6000F8B50400002500200090012C05D0002CA2
:103A700003D0F8BC08BC09201847FF260B363100DC
:103A800000206A46FDF7C8FC002812D0012C14D093
:103A900069460878FB2108400090684602783100AA
:103AA0000020FDF796FC00280DD02800F8BC08BCCB
:103AB0001847F8BC08BC012018476946087804215B
:103AC00008430090E9E7F8BC08BC0120184738B566
:103AD000040000250020009007216A46FDF79CFCA9
:103AE000002812D0012C14D06946087880210843A0
:103AF00000906846027807210020FDF76AFC002844
:103B00000DD0280038BC08BC184738BC08BC0120C0
:103B10001847694608784006400E0090E9E738BC2F
:103B200008BC012018470000044C05498C4204D20F
:103B300000202060241D8C42FBD370476CD3002AE8
:103B4000147E022AF0B5FFB082B005000024FA4FBF
:103B50000123786800216A4601F018F8002805D092
:103B600000207FB002B0F0BC08BC184770AB98785A
:103B7000DA799979120211431A7A5B7A12041B06D8
:103B80001A431143A84201D10800EAE770AB987CC0
:103B9000DA7D997D120211431A7E5B7E12041B06A8
:103BA0001A431143A84201D10800DAE778AB9878AC
:103BB000DA799979120211431A7A5B7A12041B0698
:103BC0001A431143A84201D10800CAE778AB997C97
:103BD000DA7D987D120210431A7E5B7E12041B066A
:103BE0001A431043A942BCD00600052901D0002089
:103BF000B7E77868A11901236A4600F0C7FF0028DB
:103C000001D00020ADE770AB9978DA79987912028B
:103C100010431A7A5B7A12041B061A4310433219B6
:103C20001018A9429DD070AA907CD17D947D090284
:103C30000C43117E527E0904120611430C430528E1
:103C4000D7D000208DE77047BCA07047F0B50022A8
:103C5000BC4940230C0049105B00C829FBDC6343CE
:103C6000551C81540A126C1C42550022002917DD94
:103C70001D042D0EAE461D021E062D0E360E1F0E05
:103C8000AC462300641CC6547546631C0555654646
:103C90005C1CC5542300641CC754521C8A42F0DBD0
:103CA0002000F0BC08BC184730B5FFB092B004004B
:103CB000A549684607F032F9FF2020706070A070B7
:103CC000E07020719C4D686800280AD080A900F03F
:103CD0009FFE002807D000207FB012B030BC08BC87
:103CE00018470720F8E7819820708198000A6070D3
:103CF0008198000CA0708198000EE0706868012324
:103D000000216A4600F042FF002801D00720E3E7C7
:103D1000012020716868012300216A4600F094FFA9
:103D2000002801D00720D7E7022020710020D3E728
:103D3000002070470020704710B50400FCF7B4FB6A
:103D4000042C03D010BC08BC0720184710BC08BCCA
:103D50000020184770B50025774C6068002803D014
:103D600070BC08BC00201847FCF79EFB002128000F
:103D700000F0BBFD606000280CD0FCF795FB60688C
:103D800001F0B0F8162809D000280CD070BC08BC8F
:103D90000720184770BC08BC072018470020A06007
:103DA00070BC08BC1847FCF77FFB0121280000F01D
:103DB0009CFDA060FCF778FB0221280000F095FD37
:103DC000E060FCF771FB0421280000F08EFD20610B
:103DD000FCF76AFB0521280000F087FD6061FCF715
:103DE00063FB0621280000F080FDA061FCF75CFB6E
:103DF0000721280000F079FDE06170BC08BC0020BC
:103E0000184770B50D001400FFF7A4FF072801D074
:103E1000002004E070BC08BC07201847401CA042EA
:103E2000FCD3AD1E272D71D22800784400790018EC
:103E3000874413171B4750A7A7544C58645C602154
:103E40004125686DA7A7A7A7A7A7A7A7A7A7A7A763
:103E5000A771767CA78C92989E003749072008703E
:103E60008BE035490720087087E033480121017055
:103E70000021016281E03049072008707DE02E4C6E
:103E8000002020700B20FFF75DFE002801D020628B
:103E900073E00C20FFF756FE002801D020626CE092
:103EA0000E20FFF74FFE002801D0206265E070BCB5
:103EB00008BC072018472048012101700021016239
:103EC0005BE01D4900200870086256E01A4907208F
:103ED000087052E01849072008704EE01649072084
:103EE00008704AE014490720087046E0124907208C
:103EF000087042E01049072008703EE00E49072094
:103F000008703AE00C490720087036E039E00A49A9
:103F10000720087031E008480021017001622CE0A0
:103F20000548012101700021016226E002480221BA
:103F300001700021016220E074D2002A654D4D43DA
:103F4000000000000008000000020000F348032108
:103F500001700021016210E0F0480421017000218D
:103F600001620AE0ED48052101700021016204E0D0
:103F7000EA48062101700021016270BC08BC0020E3
:103F8000184770BC08BC0720184700207047002065
:103F90007047F8B505000E001700E04802780100F0
:103FA0008968072A08D213007B441B79DB189F44D9
:103FB0001307090B0D0F1100F8BC08BC00201847AF
:103FC0000C000AE0C46808E0046906E0446904E003
:103FD000846902E0C46900E04468002C02D0012A30
:103FE00004D027E0F8BC08BC07201847002E21D1D8
:103FF000FF20BF30405D012280280ED02800FF3016
:10400000C130837B802B08D0807F802805D0FF20A3
:10401000EF30405D802800D00022002A0AD000291D
:1040200008D0080000F05EFF002803D0F8BC08BCF0
:1040300007201847B9484178012900D0760A006A5C
:104040003618FCF731FA790AF80501D0012000E0B2
:1040500000200B182A003100200000F0F5FD002898
:1040600003D0F8BC08BC07201847F8BC08BC0020E7
:1040700018470720704770B5060090B0A74D287804
:10408000072808D201007944097949188F44140897
:104090000A0C0E10120010B070BC08BC00201847AB
:1040A000AC680AE0EC6808E02C6906E06C6904E0A2
:1040B000AC6902E0EC6900E06C68002C0CD0FCF705
:1040C000F3F92000694600F0A3FC002809D010B0E5
:1040D00070BC08BC0720184710B070BC08BC072093
:1040E00018472878002811D001214902300006F035
:1040F000F3FE012332000021200000F0A5FD00287E
:104100000BD010B070BC08BC07201847019A0021E2
:10411000521E200000F05DFE0DE001990123491EB2
:104120003200200000F090FD002804D010B070BCD8
:1041300008BC07201847002804D010B070BC08BC89
:104140000720184710B070BC08BC0020184710B5F5
:1041500072480178072908D20A007A441279921825
:1041600097441307090B0D0F110010BC08BC072062
:10417000184784680AE0C46808E0046906E04469F6
:1041800004E0846902E0C46900E04468002C0AD0BD
:10419000FCF78AF9200000F0A5FE002807D010BC2B
:1041A00008BC0720184710BC08BC0720184710BCE3
:1041B00008BC00201847F8B506000D001700574846
:1041C0000178072908D20A007A4412799218974494
:1041D0001307090B0D0F1100F8BC08BC0720184786
:1041E00084680AE0C46808E0046906E0446904E001
:1041F000846902E0C46900E04468002C0ED0FCF73A
:1042000053F92B041B0C3A003100200000F01CFD78
:10421000002807D0F8BC08BC07201847F8BC08BC29
:1042200007201847F8BC08BC00201847F8B507005D
:104230000C00560AD00500D0761C38494878002872
:1042400004D1600AE20500D0401C04000878002870
:1042500007D0012803D0F8BC08BC002018478D689F
:1042600000E04D68002D0DD0FCF71EF933003A0038
:104270002100280000F08AFC002807D0F8BC08BC08
:1042800007201847F8BC08BC07201847F8BC08BC32
:104290000020184770B590B006000D001F48017847
:1042A000072908D20A007A44127992189744140810
:1042B0000A0C0E10120010B070BC08BC0020184789
:1042C00084680AE0C46808E0046906E0446904E020
:1042D000846902E0C46900E04468002C0CD0FCF75B
:1042E000E3F82000694600F093FB002809D010B0E5
:1042F00070BC08BC0720184710B070BC08BC072071
:104300001847402230006946FCF7F4F8286840302E
:10431000286010B070BC08BC0020184774D2002A76
:10432000002802D0FE49006808607047F8B50C000C
:104330000F2824D20022FB4F8300FE580DE069684D
:10434000182555434959814206D118214A43F64858
:1043500040688018F85006E0521C002E03D1F24D40
:1043600029689142EBD8FD58002D08D0EF48191864
:10437000280001F08CF9002C01D0A8682060F8BC5E
:1043800008BC18470F280CD28100E6484058002886
:1043900007D0E64A5158002903D00968002900D007
:1043A000084770470F280CD28100DE48405800288B
:1043B00007D0DE4A5158002903D04968002900D0AF
:1043C000084770470F280ED28100D6484058002871
:1043D00009D0D64A5258002A05D09268002A02D045
:1043E000D34BC918104770470F280ED28100CD4813
:1043F0004058002809D0CD4A5258002A05D0D2682A
:10440000002A02D0CA4BC918104770470F2806D29D
:104410008100C4484058002801D0406870470020FF
:10442000704730B40F280DD28300BE48C058002812
:1044300008D0BE4CE358002B04D01B69002B01D0E0
:1044400030BC184730BC70470F280CD28200B548EA
:104450008058002807D0B54B9A58002A03D05269DB
:10446000002A00D0104770470F280CD28200AD48B8
:104470008058002807D0AD4B9A58002A03D0926983
:10448000002A00D0104770470F280CD28200A548A0
:104490008058002807D0A54B9A58002A03D0D2692B
:1044A000002A00D0104770470F280CD282009D4888
:1044B0008058002807D09D4B9A58002A03D0126AD2
:1044C000002A00D0104770470F280CD28100954871
:1044D0004058002807D0954A5158002903D0496A0E
:1044E000002902D0084700207047002070470F289D
:1044F0000CD281008B484058002807D08B4A515875
:10450000002903D0896A002902D00847002070479B
:10451000002070470F280CD28100824840580028A4
:1045200007D0824A5158002903D0C96A002902D015
:10453000084701207047012070470F280CD28100E6
:1045400078484058002807D0784A5158002903D0AD
:10455000096B002902D008470020704700207047EF
:1045600070B50C0073490F2816D283006D48C058EF
:10457000002811D06D4DEB58002B0DD05D6B002D38
:104580001AD04369002B0FD01E68002E0CD01E6875
:10459000A64205D1596807E070BC08BC0020184746
:1045A00008331E68002EF2D1002905DB07F085F8DC
:1045B00070BC08BC0120184770BC08BC002018471C
:1045C00070B50C005B490F2816D283005548C058BF
:1045D000002811D0554DEB58002B0DD09D6B002DB0
:1045E0001AD04369002B0FD01E68002E0CD01E6815
:1045F000A64205D1596807E070BC08BC00201847E6
:1046000008331E68002EF2D1002905DB07F055F8AB
:1046100070BC08BC0120184770BC08BC00201847BB
:1046200030B40F2812D284003E48005900280DD023
:104630003E4D2C59002C09D0E46B002C09D00029E8
:1046400007D0002A05D0A44630BC604730BC00200B
:10465000704730BC0020704730B40F2812D284005D
:104660003048005900280DD0304D2C59002C09D06D
:10467000246C002C09D0002907D0002A05D0A446BC
:1046800030BC604730BC0020704730BC0020704711
:1046900030B40F2812D284002248005900280DD0CF
:1046A000224D2C59002C09D0646C002C09D0002913
:1046B00007D0002A05D0A44630BC604730BC00209B
:1046C000704730BC0020704730B40F2812D28400ED
:1046D0001448005900280DD0144D2C59002C09D035
:1046E000A46C002C09D0002907D0002A05D0A446CC
:1046F00030BC604730BC0020704730BC00207047A1
:104700000F2819D2820007488058002814D0074B80
:104710009A58002A10D0D26C002A0DD01047000001
:1047200020D3002A6876022A14CB002AA476022A13
:10473000E076022AFFFFFFFF704730B40F280DD24A
:1047400083005D48C058002808D05C4CE358002B1B
:1047500004D01B6D002B01D030BC184730BC704713
:1047600030B40F280DD283005348C058002808D019
:10477000524CE358002B04D05B6D002B01D030BCB1
:10478000184730BC7047F0B40D004D490F281FD2B8
:1047900084004948005900281AD0484E3459002C4A
:1047A00016D0A66D002E13D04469002C0BD02768BC
:1047B000002F08D02768AF4201D1616803E00834B8
:1047C0002768002FF6D1002902DBB446F0BC604711
:1047D000F0BC7047F0B40D0039490F2821D2840095
:1047E0003548005900281CD0344E3459002C18D0BC
:1047F000E66D002E15D0002B13D04469002C0BD091
:104800002768002F08D02768AF4201D1616803E014
:1048100008342768002FF6D1002902DBB446F0BC2B
:104820006047F0BC70470F280CD2820022488058A5
:10483000002807D0214B9A58002A03D0126E002A74
:1048400000D0104770470F280CD282001A488058B9
:10485000002807D0194B9A58002A03D0526E002A1C
:1048600000D0104770470F280ED28200124880589F
:10487000002809D0114B9A58002A05D0926E002AC0
:1048800004D0002902D01047002070470020704754
:1048900030B40F280DD283000748C058002808D034
:1048A000064CE358002B04D0DB6E002B01D030BC4B
:1048B000184730BC704700006876022AA476022AA6
:1048C000FFFFFFFF31B500240099002909D00868D7
:1048D000002806D0684602F0D7FD200038BC08BC8E
:1048E000184738BC08BC14201847F3B5060081B03F
:1048F00000250095042E04DB03B0F0BC08BC0020AA
:104900001847300001F064FB002807D0029801F03E
:1049100012FB009003B0F0BC08BC1847300001F057
:104920001EFD00282DD0300001F064FB07003C0084
:104930000C340299300002F080FD01000090002943
:1049400024D0207A04282AD0012857D0052855D011
:10495000022853D0062851D0080000F0ADFE207286
:104960002076207A00281ED0042821D0200000F0D4
:104970006AFF002820D020610098FFF7A3FF009570
:104980003CE003B0F0BC08BC00201847200002F057
:1049900097FD002832D1200001F081FD2EE068460D
:1049A00002F072FD2AE00098FFF78CFF009525E0E9
:1049B000684602F069FD21E0FF48B10040584168B7
:1049C0000122120311434160200001F060FE002823
:1049D00005D020610098FFF775FF00950EE00121DA
:1049E000200001F010FB200000F090FF00280AD00A
:1049F000206125720098FFF765FF0095009803B0CD
:104A0000F0BC08BC18470220607280373D77F5E79C
:104A1000F0B585B006000C00002003900021019144
:104A20000091002E0AD03568002D07D02868042890
:104A300009D305B0F0BC08BC1420184705B0F0BC81
:104A400008BC14201847002C05D000202060706896
:104A5000411C05D005E005B0F0BC08BC1420184787
:104A600000200290287A00280BD02070686AE0604D
:104A70003068006802F0E3FEC00705D00120207610
:104A800004E01520039031E000202076287A2700EA
:104A90002037022833D0062831D00298002842D08F
:104AA00016200390002060606020405D207400208C
:104AB0006061387100982062686BE061E88FE08483
:104AC000280040300490008820852900200007221B
:104AD00042312A3006F094F90498407A7874E86CF0
:104AE00060630498103003C8E163A06321003000C4
:104AF00001F058FE039805B0F0BC08BC1847300020
:104B00006A4601A902F0D6FA03900198606060201D
:104B1000405D2074E86A6061300002F047FB387144
:104B2000286AA060C6E7E8696060BDE710B50028A4
:104B300009D00468002C06D02068042807D310BCD4
:104B400008BC0020184710BC08BC002018478C2067
:104B500000598030007F00280BD1207A002808D02F
:104B6000200001F039FB092807D010BC08BC012047
:104B7000184710BC08BC002018470020207210BC49
:104B800008BC18470020704700207047F0B50D00A2
:104B900017001E008BB000280AD00468002C07D034
:104BA0002168042909D30BB0F0BC08BC14201847B5
:104BB0000BB0F0BC08BC142018478C210959803177
:104BC000097F002904D00BB0F0BC08BC1B2018479B
:104BD000217A00290CD001290FD005290DD00229F6
:104BE0000BD0062909D010200BB0F0BC08BC184728
:104BF00015200BB0F0BC08BC184701F001F80028E4
:104C0000F7D101221000012E00D10020122100282E
:104C100000D1112102916846027400200990207A87
:104C200005280FD006280DD0606A684303903B002A
:104C30000222200002A9009601F01DF80BB0F0BC82
:104C400008BC18470395F2E7F0B50D0017001E00E9
:104C50008BB000280AD00468002C07D021680429F2
:104C600009D30BB0F0BC08BC142018470BB0F0BC43
:104C700008BC142018478C2109598031097F00296C
:104C800004D00BB0F0BC08BC1B201847217A0029C7
:104C90000CD001290FD005290DD002290BD00629EF
:104CA00009D010200BB0F0BC08BC184715200BB081
:104CB000F0BC08BC184700F0A3FF0028F7D1012280
:104CC0001000012E00D100201921002800D1182148
:104CD00002916846027400200990207A05280FD0BE
:104CE00006280DD0606A684303903B000022200034
:104CF00002A9009600F0BFFF0BB0F0BC08BC18473B
:104D00000395F2E701207047002807D004210180B5
:104D10002A4941808021416000207047142070475B
:104D200070B50D000024042803DB70BC08BC002013
:104D3000184702F084FDC10702D0012D00D10124E3
:104D4000800700D50124200070BC08BC1847012052
:104D50007047F0B50E0089B00827042804DB09B0BD
:104D6000F0BC08BC1420184701F044F905000C35CC
:104D70000124002001900290039004900590069079
:104D8000079008900D2000900120694608726889FC
:104D900000040190280001F0A5FA0398C004000F58
:104DA0000399C905C90F864201D101290FD02000FE
:104DB000641C0F21090303E0747D022A0002000035
:104DC0008842D6D3380009B0F0BC08BC1847002789
:104DD000F8E7F0B589B003000C001600002B0AD0EC
:104DE0001D68002D07D02868042809D309B0F0BC3D
:104DF00008BC1420184709B0F0BC08BC14201847A0
:104E0000287A062806D0022804D0162009B0F0BC63
:104E100008BC1847180000F0F3FE0028F6D1012066
:104E20006946087200270797019423200090280004
:104E300001F058FA0028E9D1287A062818D0761E01
:104E4000700200190190242000902800694601F0AA
:104E500049FA0028DAD10120079001972620009016
:104E60002800694601F03EFA3F49002804D007E0D7
:104E7000A019401E0190E6E7039A0A4200D00F20D5
:104E80000728C3D10398084204D009B0F0BC08BC7D
:104E90000F201847280001F0B9F90728FAD009B007
:104EA000F0BC08BC184710B5002809D000680028DD
:104EB00006D00168042907D310BC08BC1420184789
:104EC00010BC08BC14201847017A062903D010BC76
:104ED00008BC16201847254901F0D1FD10BC08BCBC
:104EE0000028184710B5002809D00168002906D00D
:104EF0000A68042A07D310BC08BC1420184710BC49
:104F000008BC14201847097A022905D0062903D0C5
:104F100010BC08BC1620184702F062F910BC08BC8F
:104F200018471620704700280CD08178022901D03C
:104F3000062907D10022825E0D490A6082780A7133
:104F40008088C88070471620704710B5002807D0A9
:104F50000268002A04D002F078F910BC08BC184797
:104F600010BC08BC142018470080FFFD0001A203FC
:104F700024D3002A10B50949401806F0A1FB0848BF
:104F8000016010BC08BC184710B50449401806F071
:104F900097FB0348416010BC08BC1847E7030000BA
:104FA0002CD3002A10B504490968484306F030FBA9
:104FB00010BC08BC184700002CD3002AFB49800015
:104FC0000858FF3081304068C007C00F002800D06B
:104FD0000120F7490006000E487070470020704716
:104FE000F34800787047F24A012111708200EF48BF
:104FF0008058FF30413002680A4302607047EC4A33
:10500000002111708100101D4058FF3041300168AF
:10501000490849000160704710B50400E5490220C5
:105020000871B22000F056FAB32000F053FAB32012
:1050300000F059FA012000F07DFAB32000F066FA82
:10504000012000F077FAD949A00009580122D207BF
:10505000FF3181314A607023602281212000FEF7F8
:10506000FAF8B22000F03EFA10BC08BC184710B5A0
:1050700000F076FA10BC08BC184710B500F06FFAC3
:1050800010BC08BC184710B50400FF23002284217F
:105090002000FEF7E0F8FF23002287212000FEF722
:1050A000DAF8642000F055FA10BC08BC184710B5B7
:1050B0000400FF23002291212000FEF7CCF8FF23FB
:1050C000002293212000FEF7C6F8642000F041FA88
:1050D00010BC08BC184710B5002909D0012904D11B
:1050E000182308220421FEF7B6F810BC08BC1847A4
:1050F000182300220421FEF7AEF810BC08BC1847A4
:1051000070478100A9484058FF308130416A202211
:105110009143416270478100A4484058FF3081307C
:10512000416A202291434162704710B5040020007B
:10513000FFF7A9FF2000FFF7BAFF022300220A2190
:105140002000FEF788F8042300220A212000FEF741
:1051500082F810231A0084212000FEF77CF8202317
:105160001A0084212000FEF776F80A2000F0E2F908
:1051700010BC08BC184710B504001023002284217D
:105180002000FEF768F82023002284212000FEF78B
:1051900062F80A2000F0CEF910BC08BC184710B520
:1051A00004002000FFF76FFF2000FFF780FF0223BD
:1051B0001A0084212000FEF74EF801231A008421F2
:1051C0002000FEF748F820231A0084212000FEF773
:1051D00042F8322000F0AEF910BC08BC184710B5F8
:1051E00004002000FFF74FFF2000FFF760FF0223BD
:1051F000002284212000FEF72EF8012300228421C2
:105200002000FEF728F8322000F094F910BC08BC0A
:10521000184710B504002000FFF735FF2000FFF706
:1052200046FF08231A0084212000FEF714F8022309
:105230001A0084212000FEF70EF801231A008421B1
:105240002000FEF708F8322000F074F910BC08BC0A
:10525000184710B58721FDF7D8FF8007C00F10BC95
:1052600008BC184710B58721FDF7CFFFC007C00F56
:1052700010BC08BC184710B58721FDF7C6FFC00653
:10528000400F10BC08BC1847F1B582B000250020C3
:10529000009001240826F3E0132C7ED220007844ED
:1052A000007900188744EA0915EAEA406898A9C01D
:1052B000C3C6C9CCCFD2D5D8EC0002980121FFF7E4
:1052C0000AFF0298FFF727FF0298FFF72EFF02243C
:1052D000D6E000270298FFF7BCFF0006000E019001
:1052E0000298FFF7C8FF05000198012801D0002DA2
:1052F0000BD00A2000F01EF90198012803D0002DE0
:1053000003D0082409E0052407E0962000F012F9F4
:105310007F1C3F063F0E062FDCD1022C00D1062455
:105320000298FFF728FFABE00298FFF738FF0298DA
:10533000FFF798FF0406240E0298FFF79CFF050074
:105340000298FFF74CFF0298FDF74CFF210029431C
:1053500002D0012C06D007E0002801D007248FE0FE
:1053600009248DE0002D03D0002D03D0082487E010
:10537000072485E0102483E00298FFF710FF0298CD
:10538000FFF770FF0406240E0298FFF774FF050074
:105390000298FFF724FF029800E06FE0FDF722FF7C
:1053A0002100294308D0012C0CD00DE038D3002A6D
:1053B00034D3002A1C77022A002801D007245FE09A
:1053C00009245DE0002D03D0002D03D0082457E010
:1053D000072455E0102453E00298FFF71AFF0298C3
:1053E000FFF740FF0006000E002802D0012847D139
:1053F00001E00A2444E00B2442E00298FFF732FF68
:105400000006000E022D05D0032D09D0042D09D071
:10541000102435E0012801D00D2431E00C242FE0C8
:105420000E242DE00F242BE00026112428E0012675
:10543000112425E00226112422E0032611241FE076
:10544000042611241CE00526112419E00626112447
:1054500016E00726112413E00298FFF714FE0298C5
:10546000FFF725FE02980021FFF735FE0298FFF7AF
:1054700048FE0298FDF7BFFE122401E00726112422
:10548000122C06D000980099401C6429009000D28C
:1054900002E7009864280DD307260298FFF7F3FD72
:1054A0000298FFF704FE02980021FFF714FE02980D
:1054B000FFF727FE300003B0F0BC08BC18470248D5
:1054C000024908607047000004010000C016800017
:1054D00001207047B22801D0B328704721482249E3
:1054E000C860704770470122B12806D0B32803D1A5
:1054F0001D4908691043086170471C4801688023F2
:10550000194301600168114301607047B12807D059
:10551000B32804D114480169490849000161704762
:1055200012480168802291430160016849084900DE
:105530000160704770B505000024002D06D90C4E9F
:105540003000FFF72FFD641CAC42F9D370BC08BCDF
:10555000184710B5FFF726FD10BC08BC1847704768
:1055600070470000000A000000299000400250121D
:10557000E803000010B50006000E04F0BFFD10BCEB
:1055800008BC184710B50022F121B520FFF7F2FF43
:1055900000280022E821B520FFF7ECFF00280022B8
:1055A000E921B520FFF7E6FF00280022BF21B52042
:1055B000FFF7E0FF00280022C521B520FFF7DAFF42
:1055C00000280022EF21B520FFF7D4FF0028002299
:1055D000F021B520FFF7CEFF002800220221B520E0
:1055E000FFF7C8FF10BC08BC0028184710B5002200
:1055F000F121B520FFF7BEFF00280022E821B520E9
:10560000FFF7B8FF0028FF2100220B31B520FFF77C
:10561000B1FF00280022BF21B520FFF7ABFF002813
:105620000022C521B520FFF7A5FF0028FF21002299
:105630000D31B520FFF79EFF00280022F021B52094
:10564000FFF798FF002800220221B520FFF792FF04
:1056500010BC08BC0028184710B504000020FDF756
:1056600080FE172807D019280BD0182809D010BCA5
:1056700008BC322018472000FFF7B8FF10BC08BC58
:1056800018472000FFF77EFF10BC08BC184710B574
:1056900004F0A2FE10BC08BC1847000001207047AF
:1056A00000680121FA4AC90580001258506B084071
:1056B0000028FBD000207047F8B505002868016875
:1056C000042903D30020F8BC08BC1847F04E8C0016
:1056D00030590168012211430160305941681202BA
:1056E00011434160305941685700B94341607D2002
:1056F000C00001F04BFF30594168394341607D20C3
:10570000C00001F043FFE34A30594168E24B99433E
:10571000114341602868002100F075FC280004F066
:105720007FFE0028CFD1280001F0C5FAF8BC08BCE4
:10573000184770B4012403681D042D14067AD74B52
:10574000022E0AD0062E08D0002900D0D44B842186
:105750000958002905D04B4305E00029F7D0D14B6B
:10576000F5E7D1494B43A900C94D6E587362836D6B
:10577000012B02D1406A0404240C100060436958D4
:10578000886270BC704710B58AB002000320019097
:1057900001206946087300210891107A02280DD073
:1057A00006280BD00291100001A900F09BFD04987F
:1057B000040C20000AB010BC08BC18470224BB48E7
:1057C0000290100001A900F08DFDF2E7F8B5070086
:1057D0000825B74E0124380000F0FEFC04280AD04A
:1057E000642001F0D3FE2000641CB042F3D32800F3
:1057F000F8BC08BC18470025F9E770B40168082018
:10580000A34B01228900AA4D5B58AA4C596B1A265A
:105810000E40002E02D00E2070BC70472A260E408B
:10582000002E02D00D2070BC70472140002904D00A
:10583000A1489863002070BC70471100521CA94217
:10584000E4D370BC704730B589B0040002200090EA
:105850000020019004216A461172079020006946D9
:1058600000F040FD0500002D04D0280009B030BC38
:1058700008BC1847227A03A8022A07D0062A05D0B6
:10588000210004F0F4FF002813D004E0210001F00F
:10589000B0FB002808D02000FFF775FF60812800CA
:1058A00009B030BC08BC184709B030BC08BC142093
:1058B000184709B030BC08BC1420184730B589B06F
:1058C00004007E4D10200090019501206946087269
:1058D00000200790200000F005FD0100002902D102
:1058E00003988000002800290BD16562206882009F
:1058F00067488058C26A724B1A4001235B031A43FF
:10590000C26209B030BC08BC08001847F0B583B0CB
:10591000040027680121200000F021FF00281DD18C
:10592000022060720126A6652000FFF7C7FF050070
:10593000207A022806D0062804D0012816D005288F
:1059400014D03DE000215D20005D04280AD3200032
:1059500001F088FA0500002D32D0280003B0F0BC19
:1059600008BC1847380001F0DBF929E06663002025
:1059700001900290200001A904F0CFFD0028EDD194
:105980006846007A05280ED00021380001F0D1FFCA
:10599000200004F014FF0500002D0AD0280003B0F9
:1059A000F0BC08BC1847200004F01FFF0028F6D107
:1059B000EEE768464079002802D0200004F05FFE40
:1059C000200000F009FC042800D00925280003B0BD
:1059D000F0BC08BC184700B5030089B00020002ABD
:1059E00013D00C20009001206A46107201290AD0C1
:1059F00000200790002001901800694600F072FC1A
:105A000009B008BC18470120F3E70129F8D11800B4
:105A1000FFF7DCFE09B008BC1847F7B50C0015000D
:105A200084B00020029004980768002001900126AD
:105A3000A00700D00026002C0ED0002D55DDB800A8
:105A40000390134803994158486B2A220240002AC8
:105A500007D00D20029048E007B0F0BC08BC0D2034
:105A60001847002D3FD0174A0240002A3BD0094A70
:105A70001040002828D0002E26D0019521003800A3
:105A800001AA04F0CDFF0198291A0C1905002AE09B
:105A9000747D022A0080000000C00000881300000E
:105AA00090010000D007000050C300000000020079
:105AB000400D030000010000FF078001000200000C
:105AC0000F00FEFF0000200080310868002E02D089
:105AD0002060241D06E000212070000A641C491C7F
